{
  "abi": [
    {
      "type": "constructor",
      "inputs": [
        {
          "name": "_usdc",
          "type": "address",
          "internalType": "address"
        },
        {
          "name": "_usdt",
          "type": "address",
          "internalType": "address"
        }
      ],
      "stateMutability": "nonpayable"
    },
    {
      "type": "fallback",
      "stateMutability": "payable"
    },
    {
      "type": "receive",
      "stateMutability": "payable"
    },
    {
      "type": "function",
      "name": "deposit",
      "inputs": [
        {
          "name": "token",
          "type": "uint8",
          "internalType": "enum Contract.Token"
        },
        {
          "name": "amount",
          "type": "uint256",
          "internalType": "uint256"
        }
      ],
      "outputs": [],
      "stateMutability": "payable"
    },
    {
      "type": "function",
      "name": "getBalance",
      "inputs": [
        {
          "name": "user",
          "type": "address",
          "internalType": "address"
        },
        {
          "name": "token",
          "type": "uint8",
          "internalType": "enum Contract.Token"
        }
      ],
      "outputs": [
        {
          "name": "",
          "type": "uint256",
          "internalType": "uint256"
        }
      ],
      "stateMutability": "view"
    },
    {
      "type": "function",
      "name": "internalTransfer",
      "inputs": [
        {
          "name": "to",
          "type": "address",
          "internalType": "address"
        },
        {
          "name": "token",
          "type": "uint8",
          "internalType": "enum Contract.Token"
        },
        {
          "name": "amount",
          "type": "uint256",
          "internalType": "uint256"
        }
      ],
      "outputs": [],
      "stateMutability": "nonpayable"
    },
    {
      "type": "function",
      "name": "owner",
      "inputs": [],
      "outputs": [
        {
          "name": "",
          "type": "address",
          "internalType": "address"
        }
      ],
      "stateMutability": "view"
    },
    {
      "type": "function",
      "name": "ownerWithdrawTokens",
      "inputs": [
        {
          "name": "token",
          "type": "address",
          "internalType": "address"
        },
        {
          "name": "amount",
          "type": "uint256",
          "internalType": "uint256"
        },
        {
          "name": "to",
          "type": "address",
          "internalType": "address"
        }
      ],
      "outputs": [],
      "stateMutability": "nonpayable"
    },
    {
      "type": "function",
      "name": "paused",
      "inputs": [],
      "outputs": [
        {
          "name": "",
          "type": "bool",
          "internalType": "bool"
        }
      ],
      "stateMutability": "view"
    },
    {
      "type": "function",
      "name": "pay",
      "inputs": [
        {
          "name": "to",
          "type": "address",
          "internalType": "address"
        },
        {
          "name": "token",
          "type": "uint8",
          "internalType": "enum Contract.Token"
        },
        {
          "name": "amount",
          "type": "uint256",
          "internalType": "uint256"
        },
        {
          "name": "isFiat",
          "type": "bool",
          "internalType": "bool"
        }
      ],
      "outputs": [],
      "stateMutability": "nonpayable"
    },
    {
      "type": "function",
      "name": "renounceOwnership",
      "inputs": [],
      "outputs": [],
      "stateMutability": "nonpayable"
    },
    {
      "type": "function",
      "name": "togglePause",
      "inputs": [],
      "outputs": [],
      "stateMutability": "nonpayable"
    },
    {
      "type": "function",
      "name": "totalFeesCollected",
      "inputs": [
        {
          "name": "",
          "type": "uint8",
          "internalType": "enum Contract.Token"
        }
      ],
      "outputs": [
        {
          "name": "",
          "type": "uint256",
          "internalType": "uint256"
        }
      ],
      "stateMutability": "view"
    },
    {
      "type": "function",
      "name": "transferOwnership",
      "inputs": [
        {
          "name": "newOwner",
          "type": "address",
          "internalType": "address"
        }
      ],
      "outputs": [],
      "stateMutability": "nonpayable"
    },
    {
      "type": "function",
      "name": "usdc",
      "inputs": [],
      "outputs": [
        {
          "name": "",
          "type": "address",
          "internalType": "address"
        }
      ],
      "stateMutability": "view"
    },
    {
      "type": "function",
      "name": "usdt",
      "inputs": [],
      "outputs": [
        {
          "name": "",
          "type": "address",
          "internalType": "address"
        }
      ],
      "stateMutability": "view"
    },
    {
      "type": "function",
      "name": "withdraw",
      "inputs": [
        {
          "name": "token",
          "type": "uint8",
          "internalType": "enum Contract.Token"
        },
        {
          "name": "amount",
          "type": "uint256",
          "internalType": "uint256"
        },
        {
          "name": "isFiat",
          "type": "bool",
          "internalType": "bool"
        }
      ],
      "outputs": [],
      "stateMutability": "nonpayable"
    },
    {
      "type": "event",
      "name": "Deposit",
      "inputs": [
        {
          "name": "user",
          "type": "address",
          "indexed": true,
          "internalType": "address"
        },
        {
          "name": "token",
          "type": "uint8",
          "indexed": true,
          "internalType": "enum Contract.Token"
        },
        {
          "name": "amount",
          "type": "uint256",
          "indexed": false,
          "internalType": "uint256"
        }
      ],
      "anonymous": false
    },
    {
      "type": "event",
      "name": "InternalTransfer",
      "inputs": [
        {
          "name": "from",
          "type": "address",
          "indexed": true,
          "internalType": "address"
        },
        {
          "name": "to",
          "type": "address",
          "indexed": true,
          "internalType": "address"
        },
        {
          "name": "token",
          "type": "uint8",
          "indexed": true,
          "internalType": "enum Contract.Token"
        },
        {
          "name": "amount",
          "type": "uint256",
          "indexed": false,
          "internalType": "uint256"
        }
      ],
      "anonymous": false
    },
    {
      "type": "event",
      "name": "OwnerTokenWithdraw",
      "inputs": [
        {
          "name": "token",
          "type": "address",
          "indexed": true,
          "internalType": "address"
        },
        {
          "name": "to",
          "type": "address",
          "indexed": true,
          "internalType": "address"
        },
        {
          "name": "amount",
          "type": "uint256",
          "indexed": true,
          "internalType": "uint256"
        }
      ],
      "anonymous": false
    },
    {
      "type": "event",
      "name": "OwnershipTransferred",
      "inputs": [
        {
          "name": "previousOwner",
          "type": "address",
          "indexed": true,
          "internalType": "address"
        },
        {
          "name": "newOwner",
          "type": "address",
          "indexed": true,
          "internalType": "address"
        }
      ],
      "anonymous": false
    },
    {
      "type": "event",
      "name": "Paused",
      "inputs": [
        {
          "name": "account",
          "type": "address",
          "indexed": false,
          "internalType": "address"
        }
      ],
      "anonymous": false
    },
    {
      "type": "event",
      "name": "Payment",
      "inputs": [
        {
          "name": "from",
          "type": "address",
          "indexed": true,
          "internalType": "address"
        },
        {
          "name": "to",
          "type": "address",
          "indexed": true,
          "internalType": "address"
        },
        {
          "name": "token",
          "type": "uint8",
          "indexed": true,
          "internalType": "enum Contract.Token"
        },
        {
          "name": "amount",
          "type": "uint256",
          "indexed": false,
          "internalType": "uint256"
        },
        {
          "name": "isFiat",
          "type": "bool",
          "indexed": false,
          "internalType": "bool"
        }
      ],
      "anonymous": false
    },
    {
      "type": "event",
      "name": "Received",
      "inputs": [
        {
          "name": "sender",
          "type": "address",
          "indexed": true,
          "internalType": "address"
        },
        {
          "name": "amount",
          "type": "uint256",
          "indexed": true,
          "internalType": "uint256"
        }
      ],
      "anonymous": false
    },
    {
      "type": "event",
      "name": "Unpaused",
      "inputs": [
        {
          "name": "account",
          "type": "address",
          "indexed": false,
          "internalType": "address"
        }
      ],
      "anonymous": false
    },
    {
      "type": "event",
      "name": "Withdraw",
      "inputs": [
        {
          "name": "user",
          "type": "address",
          "indexed": true,
          "internalType": "address"
        },
        {
          "name": "token",
          "type": "uint8",
          "indexed": true,
          "internalType": "enum Contract.Token"
        },
        {
          "name": "netAmount",
          "type": "uint256",
          "indexed": true,
          "internalType": "uint256"
        },
        {
          "name": "fee",
          "type": "uint256",
          "indexed": false,
          "internalType": "uint256"
        },
        {
          "name": "isFiat",
          "type": "bool",
          "indexed": false,
          "internalType": "bool"
        }
      ],
      "anonymous": false
    },
    {
      "type": "error",
      "name": "EnforcedPause",
      "inputs": []
    },
    {
      "type": "error",
      "name": "ExpectedPause",
      "inputs": []
    },
    {
      "type": "error",
      "name": "OwnableInvalidOwner",
      "inputs": [
        {
          "name": "owner",
          "type": "address",
          "internalType": "address"
        }
      ]
    },
    {
      "type": "error",
      "name": "OwnableUnauthorizedAccount",
      "inputs": [
        {
          "name": "account",
          "type": "address",
          "internalType": "address"
        }
      ]
    },
    {
      "type": "error",
      "name": "ReentrancyGuardReentrantCall",
      "inputs": []
    },
    {
      "type": "error",
      "name": "SafeERC20FailedOperation",
      "inputs": [
        {
          "name": "token",
          "type": "address",
          "internalType": "address"
        }
      ]
    }
  ],
  "bytecode": {
    "object": "0x60c060405234801561000f575f5ffd5b50604051612350380380612350833981810160405281019061003191906102ee565b335f73ffffffffffffffffffffffffffffffffffffffff168173ffffffffffffffffffffffffffffffffffffffff16036100a2575f6040517f1e4fbdf7000000000000000000000000000000000000000000000000000000008152600401610099919061033b565b60405180910390fd5b6100b1816101cf60201b60201c565b50600180819055505f73ffffffffffffffffffffffffffffffffffffffff168273ffffffffffffffffffffffffffffffffffffffff161415801561012157505f73ffffffffffffffffffffffffffffffffffffffff168173ffffffffffffffffffffffffffffffffffffffff1614155b610160576040517f08c379a0000000000000000000000000000000000000000000000000000000008152600401610157906103ae565b60405180910390fd5b8173ffffffffffffffffffffffffffffffffffffffff1660808173ffffffffffffffffffffffffffffffffffffffff16815250508073ffffffffffffffffffffffffffffffffffffffff1660a08173ffffffffffffffffffffffffffffffffffffffff168152505050506103cc565b5f5f5f9054906101000a900473ffffffffffffffffffffffffffffffffffffffff169050815f5f6101000a81548173ffffffffffffffffffffffffffffffffffffffff021916908373ffffffffffffffffffffffffffffffffffffffff1602179055508173ffffffffffffffffffffffffffffffffffffffff168173ffffffffffffffffffffffffffffffffffffffff167f8be0079c531659141344cd1fd0a4f28419497f9722a3daafe3b4186f6b6457e060405160405180910390a35050565b5f5ffd5b5f73ffffffffffffffffffffffffffffffffffffffff82169050919050565b5f6102bd82610294565b9050919050565b6102cd816102b3565b81146102d7575f5ffd5b50565b5f815190506102e8816102c4565b92915050565b5f5f6040838503121561030457610303610290565b5b5f610311858286016102da565b9250506020610322858286016102da565b9150509250929050565b610335816102b3565b82525050565b5f60208201905061034e5f83018461032c565b92915050565b5f82825260208201905092915050565b7f496e76616c696420746f6b656e206164647265737300000000000000000000005f82015250565b5f610398601583610354565b91506103a382610364565b602082019050919050565b5f6020820190508181035f8301526103c58161038c565b9050919050565b60805160a051611f556103fb5f395f81816106a101526114c401525f81816106c501526114700152611f555ff3fe6080604052600436106100e0575f3560e01c8063715018a61161007e578063c4ae316811610058578063c4ae31681461030b578063ee2a1a3614610321578063f2fde38b1461035d578063f4d4c9d7146103855761012b565b8063715018a6146102a3578063831b9b00146102b95780638da5cb5b146102e15761012b565b80632f48ab7d116100ba5780632f48ab7d146101e95780633e413bee146102135780633e72a4691461023d5780635c975abb146102795761012b565b8063113861021461017157806316dd18e414610199578063268e6717146101c15761012b565b3661012b57343373ffffffffffffffffffffffffffffffffffffffff167f88a5966d370b9919b20f3e2c13ff65706f196a4e32cc2c12bf57088f8852587460405160405180910390a3005b343373ffffffffffffffffffffffffffffffffffffffff167f88a5966d370b9919b20f3e2c13ff65706f196a4e32cc2c12bf57088f8852587460405160405180910390a3005b34801561017c575f5ffd5b5061019760048036038101906101929190611742565b6103a1565b005b3480156101a4575f5ffd5b506101bf60048036038101906101ba9190611792565b610442565b005b3480156101cc575f5ffd5b506101e760048036038101906101e29190611817565b610677565b005b3480156101f4575f5ffd5b506101fd61069f565b60405161020a9190611876565b60405180910390f35b34801561021e575f5ffd5b506102276106c3565b6040516102349190611876565b60405180910390f35b348015610248575f5ffd5b50610263600480360381019061025e919061188f565b6106e7565b60405161027091906118dc565b60405180910390f35b348015610284575f5ffd5b5061028d610761565b60405161029a9190611904565b60405180910390f35b3480156102ae575f5ffd5b506102b7610776565b005b3480156102c4575f5ffd5b506102df60048036038101906102da919061191d565b610789565b005b3480156102ec575f5ffd5b506102f561082d565b6040516103029190611876565b60405180910390f35b348015610316575f5ffd5b5061031f610854565b005b34801561032c575f5ffd5b5061034760048036038101906103429190611981565b610880565b60405161035491906118dc565b60405180910390f35b348015610368575f5ffd5b50610383600480360381019061037e91906119ac565b610895565b005b61039f600480360381019061039a91906119d7565b610919565b005b6103a9610b44565b6103b1610b8a565b6103bd33848484610bcb565b8160028111156103d0576103cf611a15565b5b8373ffffffffffffffffffffffffffffffffffffffff163373ffffffffffffffffffffffffffffffffffffffff167ff4e15d561b5583afaea784a99778685d49450b0279507d73628a4b22a5b820bc8460405161042d91906118dc565b60405180910390a461043d610e40565b505050565b61044a610e49565b610452610b44565b5f73ffffffffffffffffffffffffffffffffffffffff168173ffffffffffffffffffffffffffffffffffffffff16036104c0576040517f08c379a00000000000000000000000000000000000000000000000000000000081526004016104b790611a9c565b60405180910390fd5b5f8211610502576040517f08c379a00000000000000000000000000000000000000000000000000000000081526004016104f990611b04565b60405180910390fd5b5f73ffffffffffffffffffffffffffffffffffffffff168373ffffffffffffffffffffffffffffffffffffffff16036105e3575f8173ffffffffffffffffffffffffffffffffffffffff168360405161055a90611b4f565b5f6040518083038185875af1925050503d805f8114610594576040519150601f19603f3d011682016040523d82523d5f602084013e610599565b606091505b50509050806105dd576040517f08c379a00000000000000000000000000000000000000000000000000000000081526004016105d490611bad565b60405180910390fd5b5061060f565b61060e81838573ffffffffffffffffffffffffffffffffffffffff16610ed09092919063ffffffff16565b5b818173ffffffffffffffffffffffffffffffffffffffff168473ffffffffffffffffffffffffffffffffffffffff167f0dd8672256b6dc0c3905220c028273140bd2b4af9505c3df7acfcd629b644b6960405160405180910390a4610672610e40565b505050565b61067f610b44565b610687610b8a565b610692838383610f4f565b61069a610e40565b505050565b7f000000000000000000000000000000000000000000000000000000000000000081565b7f000000000000000000000000000000000000000000000000000000000000000081565b5f60025f8473ffffffffffffffffffffffffffffffffffffffff1673ffffffffffffffffffffffffffffffffffffffff1681526020019081526020015f205f83600281111561073957610738611a15565b5b600281111561074b5761074a611a15565b5b81526020019081526020015f2054905092915050565b5f5f60149054906101000a900460ff16905090565b61077e610e49565b6107875f6112be565b565b610791610b44565b610799610b8a565b6107a533858585610bcb565b8260028111156107b8576107b7611a15565b5b8473ffffffffffffffffffffffffffffffffffffffff163373ffffffffffffffffffffffffffffffffffffffff167fd2a8b7ab0c705056aa03fdaf35edfd477065cd5918408ad1ed5d17716841fd108585604051610817929190611bcb565b60405180910390a4610827610e40565b50505050565b5f5f5f9054906101000a900473ffffffffffffffffffffffffffffffffffffffff16905090565b61085c610e49565b610864610761565b6108755761087061137f565b61087e565b61087d6113e1565b5b565b6003602052805f5260405f205f915090505481565b61089d610e49565b5f73ffffffffffffffffffffffffffffffffffffffff168173ffffffffffffffffffffffffffffffffffffffff160361090d575f6040517f1e4fbdf70000000000000000000000000000000000000000000000000000000081526004016109049190611876565b60405180910390fd5b610916816112be565b50565b610921610b44565b610929610b8a565b5f811180610965575060028081111561094557610944611a15565b5b82600281111561095857610957611a15565b5b14801561096457505f34115b5b6109a4576040517f08c379a000000000000000000000000000000000000000000000000000000000815260040161099b90611b04565b60405180910390fd5b6002808111156109b7576109b6611a15565b5b8260028111156109ca576109c9611a15565b5b03610a1657803414610a11576040517f08c379a0000000000000000000000000000000000000000000000000000000008152600401610a0890611c3c565b60405180910390fd5b610a51565b5f610a2083611442565b9050610a4f3330848473ffffffffffffffffffffffffffffffffffffffff1661152a909392919063ffffffff16565b505b8060025f3373ffffffffffffffffffffffffffffffffffffffff1673ffffffffffffffffffffffffffffffffffffffff1681526020019081526020015f205f846002811115610aa357610aa2611a15565b5b6002811115610ab557610ab4611a15565b5b81526020019081526020015f205f828254610ad09190611c87565b92505081905550816002811115610aea57610ae9611a15565b5b3373ffffffffffffffffffffffffffffffffffffffff167fe6ea2883ec66613be5cdd4954e8c4919bdb7982e6e2d907011bc051bfcde7fe483604051610b3091906118dc565b60405180910390a3610b40610e40565b5050565b600260015403610b80576040517f3ee5aeb500000000000000000000000000000000000000000000000000000000815260040160405180910390fd5b6002600181905550565b610b92610761565b15610bc9576040517fd93c066500000000000000000000000000000000000000000000000000000000815260040160405180910390fd5b565b5f73ffffffffffffffffffffffffffffffffffffffff168373ffffffffffffffffffffffffffffffffffffffff1603610c39576040517f08c379a0000000000000000000000000000000000000000000000000000000008152600401610c3090611a9c565b60405180910390fd5b5f8111610c7b576040517f08c379a0000000000000000000000000000000000000000000000000000000008152600401610c7290611d04565b60405180910390fd5b8060025f8673ffffffffffffffffffffffffffffffffffffffff1673ffffffffffffffffffffffffffffffffffffffff1681526020019081526020015f205f846002811115610ccd57610ccc611a15565b5b6002811115610cdf57610cde611a15565b5b81526020019081526020015f20541015610d2e576040517f08c379a0000000000000000000000000000000000000000000000000000000008152600401610d2590611d6c565b60405180910390fd5b8060025f8673ffffffffffffffffffffffffffffffffffffffff1673ffffffffffffffffffffffffffffffffffffffff1681526020019081526020015f205f846002811115610d8057610d7f611a15565b5b6002811115610d9257610d91611a15565b5b81526020019081526020015f205f828254610dad9190611d8a565b925050819055508060025f8573ffffffffffffffffffffffffffffffffffffffff1673ffffffffffffffffffffffffffffffffffffffff1681526020019081526020015f205f846002811115610e0657610e05611a15565b5b6002811115610e1857610e17611a15565b5b81526020019081526020015f205f828254610e339190611c87565b9250508190555050505050565b60018081905550565b610e516115ac565b73ffffffffffffffffffffffffffffffffffffffff16610e6f61082d565b73ffffffffffffffffffffffffffffffffffffffff1614610ece57610e926115ac565b6040517f118cdaa7000000000000000000000000000000000000000000000000000000008152600401610ec59190611876565b60405180910390fd5b565b610f4a838473ffffffffffffffffffffffffffffffffffffffff1663a9059cbb8585604051602401610f03929190611dbd565b604051602081830303815290604052915060e01b6020820180517bffffffffffffffffffffffffffffffffffffffffffffffffffffffff83818316178352505050506115b3565b505050565b5f8211610f91576040517f08c379a0000000000000000000000000000000000000000000000000000000008152600401610f8890611d04565b60405180910390fd5b8160025f3373ffffffffffffffffffffffffffffffffffffffff1673ffffffffffffffffffffffffffffffffffffffff1681526020019081526020015f205f856002811115610fe357610fe2611a15565b5b6002811115610ff557610ff4611a15565b5b81526020019081526020015f20541015611044576040517f08c379a000000000000000000000000000000000000000000000000000000000815260040161103b90611d6c565b60405180910390fd5b5f6103e86005846110559190611de4565b61105f9190611e52565b90505f818461106e9190611d8a565b90508360025f3373ffffffffffffffffffffffffffffffffffffffff1673ffffffffffffffffffffffffffffffffffffffff1681526020019081526020015f205f8760028111156110c2576110c1611a15565b5b60028111156110d4576110d3611a15565b5b81526020019081526020015f205f8282546110ef9190611d8a565b925050819055508160035f87600281111561110d5761110c611a15565b5b600281111561111f5761111e611a15565b5b81526020019081526020015f205f82825461113a9190611c87565b9250508190555060028081111561115457611153611a15565b5b85600281111561116757611166611a15565b5b0361121a575f3373ffffffffffffffffffffffffffffffffffffffff168260405161119190611b4f565b5f6040518083038185875af1925050503d805f81146111cb576040519150601f19603f3d011682016040523d82523d5f602084013e6111d0565b606091505b5050905080611214576040517f08c379a000000000000000000000000000000000000000000000000000000000815260040161120b90611bad565b60405180910390fd5b50611253565b5f61122486611442565b905061125133838373ffffffffffffffffffffffffffffffffffffffff16610ed09092919063ffffffff16565b505b8085600281111561126757611266611a15565b5b3373ffffffffffffffffffffffffffffffffffffffff167f3066ce17c82835abae337f52f5e98c2fc2179877c9e36b5ad0604e7d21bf810485876040516112af929190611bcb565b60405180910390a45050505050565b5f5f5f9054906101000a900473ffffffffffffffffffffffffffffffffffffffff169050815f5f6101000a81548173ffffffffffffffffffffffffffffffffffffffff021916908373ffffffffffffffffffffffffffffffffffffffff1602179055508173ffffffffffffffffffffffffffffffffffffffff168173ffffffffffffffffffffffffffffffffffffffff167f8be0079c531659141344cd1fd0a4f28419497f9722a3daafe3b4186f6b6457e060405160405180910390a35050565b611387610b8a565b60015f60146101000a81548160ff0219169083151502179055507f62e78cea01bee320cd4e420270b5ea74000d11b0c9f74754ebdbfc544b05a2586113ca6115ac565b6040516113d79190611876565b60405180910390a1565b6113e961164e565b5f5f60146101000a81548160ff0219169083151502179055507f5db9ee0a495bf2e6ff9c91a7834c1ba4fdd244a5e8aa4e537bd38aeae4b073aa61142b6115ac565b6040516114389190611876565b60405180910390a1565b5f5f600281111561145657611455611a15565b5b82600281111561146957611468611a15565b5b03611496577f00000000000000000000000000000000000000000000000000000000000000009050611525565b600160028111156114aa576114a9611a15565b5b8260028111156114bd576114bc611a15565b5b036114ea577f00000000000000000000000000000000000000000000000000000000000000009050611525565b6040517f08c379a000000000000000000000000000000000000000000000000000000000815260040161151c90611ecc565b60405180910390fd5b919050565b6115a6848573ffffffffffffffffffffffffffffffffffffffff166323b872dd86868660405160240161155f93929190611eea565b604051602081830303815290604052915060e01b6020820180517bffffffffffffffffffffffffffffffffffffffffffffffffffffffff83818316178352505050506115b3565b50505050565b5f33905090565b5f5f60205f8451602086015f885af1806115d2576040513d5f823e3d81fd5b3d92505f519150505f82146115eb576001811415611606565b5f8473ffffffffffffffffffffffffffffffffffffffff163b145b1561164857836040517f5274afe700000000000000000000000000000000000000000000000000000000815260040161163f9190611876565b60405180910390fd5b50505050565b611656610761565b61168c576040517f8dfc202b00000000000000000000000000000000000000000000000000000000815260040160405180910390fd5b565b5f5ffd5b5f73ffffffffffffffffffffffffffffffffffffffff82169050919050565b5f6116bb82611692565b9050919050565b6116cb816116b1565b81146116d5575f5ffd5b50565b5f813590506116e6816116c2565b92915050565b600381106116f8575f5ffd5b50565b5f81359050611709816116ec565b92915050565b5f819050919050565b6117218161170f565b811461172b575f5ffd5b50565b5f8135905061173c81611718565b92915050565b5f5f5f606084860312156117595761175861168e565b5b5f611766868287016116d8565b9350506020611777868287016116fb565b92505060406117888682870161172e565b9150509250925092565b5f5f5f606084860312156117a9576117a861168e565b5b5f6117b6868287016116d8565b93505060206117c78682870161172e565b92505060406117d8868287016116d8565b9150509250925092565b5f8115159050919050565b6117f6816117e2565b8114611800575f5ffd5b50565b5f81359050611811816117ed565b92915050565b5f5f5f6060848603121561182e5761182d61168e565b5b5f61183b868287016116fb565b935050602061184c8682870161172e565b925050604061185d86828701611803565b9150509250925092565b611870816116b1565b82525050565b5f6020820190506118895f830184611867565b92915050565b5f5f604083850312156118a5576118a461168e565b5b5f6118b2858286016116d8565b92505060206118c3858286016116fb565b9150509250929050565b6118d68161170f565b82525050565b5f6020820190506118ef5f8301846118cd565b92915050565b6118fe816117e2565b82525050565b5f6020820190506119175f8301846118f5565b92915050565b5f5f5f5f608085870312156119355761193461168e565b5b5f611942878288016116d8565b9450506020611953878288016116fb565b93505060406119648782880161172e565b925050606061197587828801611803565b91505092959194509250565b5f602082840312156119965761199561168e565b5b5f6119a3848285016116fb565b91505092915050565b5f602082840312156119c1576119c061168e565b5b5f6119ce848285016116d8565b91505092915050565b5f5f604083850312156119ed576119ec61168e565b5b5f6119fa858286016116fb565b9250506020611a0b8582860161172e565b9150509250929050565b7f4e487b71000000000000000000000000000000000000000000000000000000005f52602160045260245ffd5b5f82825260208201905092915050565b7f496e76616c696420726563697069656e740000000000000000000000000000005f82015250565b5f611a86601183611a42565b9150611a9182611a52565b602082019050919050565b5f6020820190508181035f830152611ab381611a7a565b9050919050565b7f496e76616c696420616d6f756e740000000000000000000000000000000000005f82015250565b5f611aee600e83611a42565b9150611af982611aba565b602082019050919050565b5f6020820190508181035f830152611b1b81611ae2565b9050919050565b5f81905092915050565b50565b5f611b3a5f83611b22565b9150611b4582611b2c565b5f82019050919050565b5f611b5982611b2f565b9150819050919050565b7f455448207472616e73666572206661696c6564000000000000000000000000005f82015250565b5f611b97601383611a42565b9150611ba282611b63565b602082019050919050565b5f6020820190508181035f830152611bc481611b8b565b9050919050565b5f604082019050611bde5f8301856118cd565b611beb60208301846118f5565b9392505050565b7f45544820616d6f756e74206d69736d61746368000000000000000000000000005f82015250565b5f611c26601383611a42565b9150611c3182611bf2565b602082019050919050565b5f6020820190508181035f830152611c5381611c1a565b9050919050565b7f4e487b71000000000000000000000000000000000000000000000000000000005f52601160045260245ffd5b5f611c918261170f565b9150611c9c8361170f565b9250828201905080821115611cb457611cb3611c5a565b5b92915050565b7f416d6f756e74206d7573742062652067726561746572207468616e207a65726f5f82015250565b5f611cee602083611a42565b9150611cf982611cba565b602082019050919050565b5f6020820190508181035f830152611d1b81611ce2565b9050919050565b7f496e73756666696369656e742062616c616e63650000000000000000000000005f82015250565b5f611d56601483611a42565b9150611d6182611d22565b602082019050919050565b5f6020820190508181035f830152611d8381611d4a565b9050919050565b5f611d948261170f565b9150611d9f8361170f565b9250828203905081811115611db757611db6611c5a565b5b92915050565b5f604082019050611dd05f830185611867565b611ddd60208301846118cd565b9392505050565b5f611dee8261170f565b9150611df98361170f565b9250828202611e078161170f565b91508282048414831517611e1e57611e1d611c5a565b5b5092915050565b7f4e487b71000000000000000000000000000000000000000000000000000000005f52601260045260245ffd5b5f611e5c8261170f565b9150611e678361170f565b925082611e7757611e76611e25565b5b828204905092915050565b7f556e737570706f7274656420746f6b656e0000000000000000000000000000005f82015250565b5f611eb6601183611a42565b9150611ec182611e82565b602082019050919050565b5f6020820190508181035f830152611ee381611eaa565b9050919050565b5f606082019050611efd5f830186611867565b611f0a6020830185611867565b611f1760408301846118cd565b94935050505056fea264697066735822122046c006ffa9a31f91933d5e42e40e1fcd79eb0046699366c1a5d23574144e73e064736f6c634300081c0033",
    "linkReferences": {}
  },
  "methodIdentifiers": {
    "deposit(uint8,uint256)": "f4d4c9d7",
    "getBalance(address,uint8)": "3e72a469",
    "internalTransfer(address,uint8,uint256)": "11386102",
    "owner()": "8da5cb5b",
    "ownerWithdrawTokens(address,uint256,address)": "16dd18e4",
    "paused()": "5c975abb",
    "pay(address,uint8,uint256,bool)": "831b9b00",
    "renounceOwnership()": "715018a6",
    "togglePause()": "c4ae3168",
    "totalFeesCollected(uint8)": "ee2a1a36",
    "transferOwnership(address)": "f2fde38b",
    "usdc()": "3e413bee",
    "usdt()": "2f48ab7d",
    "withdraw(uint8,uint256,bool)": "268e6717"
  },
  "id": 10
}